{
  "_format": "hh-sol-artifact-1",
  "contractName": "LineControl",
  "sourceName": "contracts/LineControl.sol",
  "abi": [
    {
      "inputs": [],
      "stateMutability": "nonpayable",
      "type": "constructor"
    },
    {
      "anonymous": false,
      "inputs": [],
      "name": "requestMoreStudents",
      "type": "event"
    },
    {
      "anonymous": false,
      "inputs": [
        {
          "indexed": false,
          "internalType": "uint256",
          "name": "amount",
          "type": "uint256"
        }
      ],
      "name": "studentsComing",
      "type": "event"
    },
    {
      "inputs": [
        {
          "internalType": "uint256",
          "name": "",
          "type": "uint256"
        }
      ],
      "name": "currentStudents",
      "outputs": [
        {
          "internalType": "string",
          "name": "",
          "type": "string"
        }
      ],
      "stateMutability": "view",
      "type": "function"
    },
    {
      "inputs": [
        {
          "internalType": "string",
          "name": "student",
          "type": "string"
        }
      ],
      "name": "finalize",
      "outputs": [],
      "stateMutability": "nonpayable",
      "type": "function"
    },
    {
      "inputs": [
        {
          "internalType": "string[]",
          "name": "_studentIds",
          "type": "string[]"
        }
      ],
      "name": "sendStudents",
      "outputs": [],
      "stateMutability": "nonpayable",
      "type": "function"
    }
  ],
  "bytecode": "0x6080604052348015600f57600080fd5b50610e728061001f6000396000f3fe608060405234801561001057600080fd5b50600436106100415760003560e01c80634d40db3c14610046578063608042691461006257806370b581ad14610092575b600080fd5b610060600480360381019061005b919061070b565b6100ae565b005b61007c6004803603810190610077919061078a565b610152565b6040516100899190610836565b60405180910390f35b6100ac60048036038101906100a79190610858565b6101fe565b005b60005b81518110156101165760008282815181106100cf576100ce6108a1565b5b60200260200101519080600181540180825580915050600190039060005260206000200160009091909190915090816101089190610adc565b5080806001019150506100b1565b507fc4206755165a7106797cea8ebd3cce3248228bf689e48bc99b8bc5db223e1c6a81516040516101479190610bbd565b60405180910390a150565b6000818154811061016257600080fd5b90600052602060002001600091509050805461017d906108ff565b80601f01602080910402602001604051908101604052809291908181526020018280546101a9906108ff565b80156101f65780601f106101cb576101008083540402835291602001916101f6565b820191906000526020600020905b8154815290600101906020018083116101d957829003601f168201915b505050505081565b6000805b60008054905081101561038a576102bf60008281548110610226576102256108a1565b5b90600052602060002001805461023b906108ff565b80601f0160208091040260200160405190810160405280929190818152602001828054610267906108ff565b80156102b45780601f10610289576101008083540402835291602001916102b4565b820191906000526020600020905b81548152906001019060200180831161029757829003601f168201915b50505050508461040a565b1561037d5760019150600081815481106102dc576102db6108a1565b5b9060005260206000200160006102f2919061046e565b600060016000805490506103069190610c07565b81548110610317576103166108a1565b5b9060005260206000200160008281548110610335576103346108a1565b5b90600052602060002001908161034b9190610c66565b50600080548061035e5761035d610d4e565b5b60019003818190600052602060002001600061037a919061046e565b90555b8080600101915050610202565b50806103cb576040517f08c379a00000000000000000000000000000000000000000000000000000000081526004016103c290610dc9565b60405180910390fd5b60026000805490501015610406577f7ac3fdeffd057092d2c3e348e729906ee454de507ab43a1e982129bc1be3d87b60405160405180910390a15b5050565b6000808360405160200161041e9190610e25565b6040516020818303038152906040528051906020012090506000836040516020016104499190610e25565b6040516020818303038152906040528051906020012090508082149250505092915050565b50805461047a906108ff565b6000825580601f1061048c57506104ab565b601f0160209004906000526020600020908101906104aa91906104ae565b5b50565b5b808211156104c75760008160009055506001016104af565b5090565b6000604051905090565b600080fd5b600080fd5b600080fd5b6000601f19601f8301169050919050565b7f4e487b7100000000000000000000000000000000000000000000000000000000600052604160045260246000fd5b61052d826104e4565b810181811067ffffffffffffffff8211171561054c5761054b6104f5565b5b80604052505050565b600061055f6104cb565b905061056b8282610524565b919050565b600067ffffffffffffffff82111561058b5761058a6104f5565b5b602082029050602081019050919050565b600080fd5b600080fd5b600067ffffffffffffffff8211156105c1576105c06104f5565b5b6105ca826104e4565b9050602081019050919050565b82818337600083830152505050565b60006105f96105f4846105a6565b610555565b905082815260208101848484011115610615576106146105a1565b5b6106208482856105d7565b509392505050565b600082601f83011261063d5761063c6104df565b5b813561064d8482602086016105e6565b91505092915050565b600061066961066484610570565b610555565b9050808382526020820190506020840283018581111561068c5761068b61059c565b5b835b818110156106d357803567ffffffffffffffff8111156106b1576106b06104df565b5b8086016106be8982610628565b8552602085019450505060208101905061068e565b5050509392505050565b600082601f8301126106f2576106f16104df565b5b8135610702848260208601610656565b91505092915050565b600060208284031215610721576107206104d5565b5b600082013567ffffffffffffffff81111561073f5761073e6104da565b5b61074b848285016106dd565b91505092915050565b6000819050919050565b61076781610754565b811461077257600080fd5b50565b6000813590506107848161075e565b92915050565b6000602082840312156107a05761079f6104d5565b5b60006107ae84828501610775565b91505092915050565b600081519050919050565b600082825260208201905092915050565b60005b838110156107f15780820151818401526020810190506107d6565b60008484015250505050565b6000610808826107b7565b61081281856107c2565b93506108228185602086016107d3565b61082b816104e4565b840191505092915050565b6000602082019050818103600083015261085081846107fd565b905092915050565b60006020828403121561086e5761086d6104d5565b5b600082013567ffffffffffffffff81111561088c5761088b6104da565b5b61089884828501610628565b91505092915050565b7f4e487b7100000000000000000000000000000000000000000000000000000000600052603260045260246000fd5b7f4e487b7100000000000000000000000000000000000000000000000000000000600052602260045260246000fd5b6000600282049050600182168061091757607f821691505b60208210810361092a576109296108d0565b5b50919050565b60008190508160005260206000209050919050565b60006020601f8301049050919050565b600082821b905092915050565b6000600883026109927fffffffffffffffffffffffffffffffffffffffffffffffffffffffffffffffff82610955565b61099c8683610955565b95508019841693508086168417925050509392505050565b6000819050919050565b60006109d96109d46109cf84610754565b6109b4565b610754565b9050919050565b6000819050919050565b6109f3836109be565b610a076109ff826109e0565b848454610962565b825550505050565b600090565b610a1c610a0f565b610a278184846109ea565b505050565b5b81811015610a4b57610a40600082610a14565b600181019050610a2d565b5050565b601f821115610a9057610a6181610930565b610a6a84610945565b81016020851015610a79578190505b610a8d610a8585610945565b830182610a2c565b50505b505050565b600082821c905092915050565b6000610ab360001984600802610a95565b1980831691505092915050565b6000610acc8383610aa2565b9150826002028217905092915050565b610ae5826107b7565b67ffffffffffffffff811115610afe57610afd6104f5565b5b610b0882546108ff565b610b13828285610a4f565b600060209050601f831160018114610b465760008415610b34578287015190505b610b3e8582610ac0565b865550610ba6565b601f198416610b5486610930565b60005b82811015610b7c57848901518255600182019150602085019450602081019050610b57565b86831015610b995784890151610b95601f891682610aa2565b8355505b6001600288020188555050505b505050505050565b610bb781610754565b82525050565b6000602082019050610bd26000830184610bae565b92915050565b7f4e487b7100000000000000000000000000000000000000000000000000000000600052601160045260246000fd5b6000610c1282610754565b9150610c1d83610754565b9250828203905081811115610c3557610c34610bd8565b5b92915050565b600081549050610c4a816108ff565b9050919050565b60008190508160005260206000209050919050565b818103610c74575050610d4c565b610c7d82610c3b565b67ffffffffffffffff811115610c9657610c956104f5565b5b610ca082546108ff565b610cab828285610a4f565b6000601f831160018114610cda5760008415610cc8578287015490505b610cd28582610ac0565b865550610d45565b601f198416610ce887610c51565b9650610cf386610930565b60005b82811015610d1b57848901548255600182019150600185019450602081019050610cf6565b86831015610d385784890154610d34601f891682610aa2565b8355505b6001600288020188555050505b5050505050505b565b7f4e487b7100000000000000000000000000000000000000000000000000000000600052603160045260246000fd5b7f53747564656e7420776173206e6f7420696e206c697374000000000000000000600082015250565b6000610db36017836107c2565b9150610dbe82610d7d565b602082019050919050565b60006020820190508181036000830152610de281610da6565b9050919050565b600081905092915050565b6000610dff826107b7565b610e098185610de9565b9350610e198185602086016107d3565b80840191505092915050565b6000610e318284610df4565b91508190509291505056fea2646970667358221220e9d7519355420db857780b901f2c1b97273c9a292f6e4d97553865e269d05d1264736f6c634300081c0033",
  "linkReferences": {},
  "deployedLinkReferences": {}
}